{
  "contractName": "LoanContract",
  "abi": [
    {
      "inputs": [],
      "stateMutability": "nonpayable",
      "type": "constructor"
    },
    {
      "inputs": [],
      "name": "admin",
      "outputs": [
        {
          "internalType": "address payable",
          "name": "",
          "type": "address"
        }
      ],
      "stateMutability": "view",
      "type": "function",
      "constant": true
    },
    {
      "inputs": [
        {
          "internalType": "address",
          "name": "",
          "type": "address"
        }
      ],
      "name": "loans",
      "outputs": [
        {
          "internalType": "uint256",
          "name": "",
          "type": "uint256"
        }
      ],
      "stateMutability": "view",
      "type": "function",
      "constant": true
    },
    {
      "inputs": [
        {
          "internalType": "uint256",
          "name": "amount",
          "type": "uint256"
        },
        {
          "internalType": "address",
          "name": "client",
          "type": "address"
        }
      ],
      "name": "sendLoan",
      "outputs": [],
      "stateMutability": "nonpayable",
      "type": "function"
    }
  ],
  "bytecode": "0x608060405234801561001057600080fd5b50336000806101000a81548173ffffffffffffffffffffffffffffffffffffffff021916908373ffffffffffffffffffffffffffffffffffffffff1602179055506104cf806100606000396000f3fe608060405234801561001057600080fd5b50600436106100415760003560e01c806373b4086b14610046578063f851a44014610076578063fccdc03014610094575b600080fd5b610060600480360381019061005b91906102a7565b6100b0565b60405161006d91906102ed565b60405180910390f35b61007e6100c8565b60405161008b9190610329565b60405180910390f35b6100ae60048036038101906100a99190610370565b6100ec565b005b60016020528060005260406000206000915090505481565b60008054906101000a900473ffffffffffffffffffffffffffffffffffffffff1681565b60008054906101000a900473ffffffffffffffffffffffffffffffffffffffff1673ffffffffffffffffffffffffffffffffffffffff163373ffffffffffffffffffffffffffffffffffffffff161461017a576040517f08c379a00000000000000000000000000000000000000000000000000000000081526004016101719061040d565b60405180910390fd5b6000600160008373ffffffffffffffffffffffffffffffffffffffff1673ffffffffffffffffffffffffffffffffffffffff16815260200190815260200160002054146101fc576040517f08c379a00000000000000000000000000000000000000000000000000000000081526004016101f390610479565b60405180910390fd5b81600160008373ffffffffffffffffffffffffffffffffffffffff1673ffffffffffffffffffffffffffffffffffffffff168152602001908152602001600020819055505050565b600080fd5b600073ffffffffffffffffffffffffffffffffffffffff82169050919050565b600061027482610249565b9050919050565b61028481610269565b811461028f57600080fd5b50565b6000813590506102a18161027b565b92915050565b6000602082840312156102bd576102bc610244565b5b60006102cb84828501610292565b91505092915050565b6000819050919050565b6102e7816102d4565b82525050565b600060208201905061030260008301846102de565b92915050565b600061031382610249565b9050919050565b61032381610308565b82525050565b600060208201905061033e600083018461031a565b92915050565b61034d816102d4565b811461035857600080fd5b50565b60008135905061036a81610344565b92915050565b6000806040838503121561038757610386610244565b5b60006103958582860161035b565b92505060206103a685828601610292565b9150509250929050565b600082825260208201905092915050565b7f4f6e6c792061646d696e2063616e2073656e64206c6f616e0000000000000000600082015250565b60006103f76018836103b0565b9150610402826103c1565b602082019050919050565b60006020820190508181036000830152610426816103ea565b9050919050565b7f4c6f616e20616c72656164792073656e74000000000000000000000000000000600082015250565b60006104636011836103b0565b915061046e8261042d565b602082019050919050565b6000602082019050818103600083015261049281610456565b905091905056fea2646970667358221220d869c2102ccf635e205cbb5c4ebfd3b901ae1645863887437f65dda3ff3e837a64736f6c63430008130033",
  "immutableReferences": {},
  "source": "// SPDX-License-Identifier: MIT\r\npragma solidity ^0.8.0;\r\n\r\n\r\ncontract LoanContract {\r\n\r\n    address payable public admin;\r\n    mapping(address => uint) public loans;\r\n\r\n    constructor() {\r\n        admin = payable(msg.sender);\r\n    }\r\n\r\n    function sendLoan(uint amount,address client ) public {\r\n        require(msg.sender == admin, \"Only admin can send loan\");\r\n        require(loans[client] == 0, \"Loan already sent\");\r\n        loans[client] = amount;\r\n    }\r\n\r\n\r\n}",
  "sourcePath": "D:\\PROJECTS\\loan-sanctioning\\loan-server\\contracts\\loanContract.sol",
  "compiler": {
    "name": "solc",
    "version": "0.8.19+commit.7dd6d404.Emscripten.clang"
  },
  "schemaVersion": "3.4.16",
  "updatedAt": "2024-02-28T03:57:27.600Z",
  "networkType": "ethereum",
  "devdoc": {
    "kind": "dev",
    "methods": {},
    "version": 1
  },
  "userdoc": {
    "kind": "user",
    "methods": {},
    "version": 1
  }
}