{
  "contractName": "LoanContract",
  "abi": [
    {
      "inputs": [],
      "stateMutability": "nonpayable",
      "type": "constructor"
    },
    {
      "inputs": [],
      "name": "admin",
      "outputs": [
        {
          "internalType": "address payable",
          "name": "",
          "type": "address"
        }
      ],
      "stateMutability": "view",
      "type": "function",
      "constant": true
    },
    {
      "inputs": [
        {
          "internalType": "address",
          "name": "",
          "type": "address"
        }
      ],
      "name": "loans",
      "outputs": [
        {
          "internalType": "uint256",
          "name": "",
          "type": "uint256"
        }
      ],
      "stateMutability": "view",
      "type": "function",
      "constant": true
    },
    {
      "inputs": [
        {
          "internalType": "uint256",
          "name": "amount",
          "type": "uint256"
        },
        {
          "internalType": "address",
          "name": "client",
          "type": "address"
        }
      ],
      "name": "sendLoan",
      "outputs": [],
      "stateMutability": "nonpayable",
      "type": "function"
    },
    {
      "inputs": [],
      "name": "getContractBalance",
      "outputs": [
        {
          "internalType": "uint256",
          "name": "",
          "type": "uint256"
        }
      ],
      "stateMutability": "view",
      "type": "function",
      "constant": true
    }
  ],
  "bytecode": "0x608060405234801561001057600080fd5b50336000806101000a81548173ffffffffffffffffffffffffffffffffffffffff021916908373ffffffffffffffffffffffffffffffffffffffff160217905550610522806100606000396000f3fe608060405234801561001057600080fd5b506004361061004c5760003560e01c80636f9fb98a1461005157806373b4086b1461006f578063f851a4401461009f578063fccdc030146100bd575b600080fd5b6100596100d9565b604051610066919061028a565b60405180910390f35b61008960048036038101906100849190610308565b6100e1565b604051610096919061028a565b60405180910390f35b6100a76100f9565b6040516100b49190610356565b60405180910390f35b6100d760048036038101906100d2919061039d565b61011d565b005b600047905090565b60016020528060005260406000206000915090505481565b60008054906101000a900473ffffffffffffffffffffffffffffffffffffffff1681565b81471015610160576040517f08c379a00000000000000000000000000000000000000000000000000000000081526004016101579061043a565b60405180910390fd5b6000600160008373ffffffffffffffffffffffffffffffffffffffff1673ffffffffffffffffffffffffffffffffffffffff16815260200190815260200160002054146101e2576040517f08c379a00000000000000000000000000000000000000000000000000000000081526004016101d9906104cc565b60405180910390fd5b81600160008373ffffffffffffffffffffffffffffffffffffffff1673ffffffffffffffffffffffffffffffffffffffff168152602001908152602001600020819055508073ffffffffffffffffffffffffffffffffffffffff166108fc839081150290604051600060405180830381858888f1935050505015801561026c573d6000803e3d6000fd5b505050565b6000819050919050565b61028481610271565b82525050565b600060208201905061029f600083018461027b565b92915050565b600080fd5b600073ffffffffffffffffffffffffffffffffffffffff82169050919050565b60006102d5826102aa565b9050919050565b6102e5816102ca565b81146102f057600080fd5b50565b600081359050610302816102dc565b92915050565b60006020828403121561031e5761031d6102a5565b5b600061032c848285016102f3565b91505092915050565b6000610340826102aa565b9050919050565b61035081610335565b82525050565b600060208201905061036b6000830184610347565b92915050565b61037a81610271565b811461038557600080fd5b50565b60008135905061039781610371565b92915050565b600080604083850312156103b4576103b36102a5565b5b60006103c285828601610388565b92505060206103d3858286016102f3565b9150509250929050565b600082825260208201905092915050565b7f4e6f7420656e6f7567682066756e647300000000000000000000000000000000600082015250565b60006104246010836103dd565b915061042f826103ee565b602082019050919050565b6000602082019050818103600083015261045381610417565b9050919050565b7f50726576696f7573206c6f616e206d757374206265207265706169642062656660008201527f6f72652061206e6577206f6e65206973206772616e7465640000000000000000602082015250565b60006104b66038836103dd565b91506104c18261045a565b604082019050919050565b600060208201905081810360008301526104e5816104a9565b905091905056fea2646970667358221220bcfad2cc5fb53355a557306c105c8e535d5d81f023df0fd09ebc02d4c31a53d364736f6c63430008130033",
  "immutableReferences": {},
  "source": "// SPDX-License-Identifier: MIT\r\npragma solidity ^0.8.0;\r\n\r\ncontract LoanContract {\r\n    address payable public admin;\r\n    mapping(address => uint) public loans;\r\n\r\n    constructor() {\r\n        admin = payable(msg.sender);\r\n    }\r\n\r\n    \r\n\r\n    function sendLoan(uint amount, address client) public {\r\n        require(address(this).balance >= amount, \"Not enough funds\");\r\n        require(loans[client] == 0, \"Previous loan must be repaid before a new one is granted\");\r\n\r\n        loans[client] = amount;\r\n        payable(client).transfer(amount);\r\n    }\r\n\r\n    function getContractBalance() public view returns (uint) {\r\n        return address(this).balance;\r\n    }\r\n}",
  "sourcePath": "D:\\PROJECTS\\loan-sanctioning\\loan-server\\contracts\\loanContract.sol",
  "compiler": {
    "name": "solc",
    "version": "0.8.19+commit.7dd6d404.Emscripten.clang"
  },
  "schemaVersion": "3.4.16",
  "updatedAt": "2024-02-25T14:06:47.021Z",
  "networkType": "ethereum",
  "devdoc": {
    "kind": "dev",
    "methods": {},
    "version": 1
  },
  "userdoc": {
    "kind": "user",
    "methods": {},
    "version": 1
  }
}