{
  "contractName": "LoanContract",
  "abi": [
    {
      "inputs": [],
      "stateMutability": "nonpayable",
      "type": "constructor"
    },
    {
      "inputs": [],
      "name": "admin",
      "outputs": [
        {
          "internalType": "address payable",
          "name": "",
          "type": "address"
        }
      ],
      "stateMutability": "view",
      "type": "function",
      "constant": true
    },
    {
      "inputs": [
        {
          "internalType": "address",
          "name": "",
          "type": "address"
        }
      ],
      "name": "loans",
      "outputs": [
        {
          "internalType": "uint256",
          "name": "",
          "type": "uint256"
        }
      ],
      "stateMutability": "view",
      "type": "function",
      "constant": true
    },
    {
      "inputs": [
        {
          "internalType": "uint256",
          "name": "amount",
          "type": "uint256"
        },
        {
          "internalType": "address",
          "name": "client",
          "type": "address"
        }
      ],
      "name": "sendLoan",
      "outputs": [],
      "stateMutability": "nonpayable",
      "type": "function"
    }
  ],
  "bytecode": "0x608060405234801561001057600080fd5b50336000806101000a81548173ffffffffffffffffffffffffffffffffffffffff021916908373ffffffffffffffffffffffffffffffffffffffff1602179055506103d5806100606000396000f3fe608060405234801561001057600080fd5b50600436106100415760003560e01c806373b4086b14610046578063f851a44014610076578063fccdc03014610094575b600080fd5b610060600480360381019061005b9190610219565b6100b0565b60405161006d919061025f565b60405180910390f35b61007e6100c8565b60405161008b919061029b565b60405180910390f35b6100ae60048036038101906100a991906102e2565b6100ec565b005b60016020528060005260406000206000915090505481565b60008054906101000a900473ffffffffffffffffffffffffffffffffffffffff1681565b6000600160008373ffffffffffffffffffffffffffffffffffffffff1673ffffffffffffffffffffffffffffffffffffffff168152602001908152602001600020541461016e576040517f08c379a00000000000000000000000000000000000000000000000000000000081526004016101659061037f565b60405180910390fd5b81600160008373ffffffffffffffffffffffffffffffffffffffff1673ffffffffffffffffffffffffffffffffffffffff168152602001908152602001600020819055505050565b600080fd5b600073ffffffffffffffffffffffffffffffffffffffff82169050919050565b60006101e6826101bb565b9050919050565b6101f6816101db565b811461020157600080fd5b50565b600081359050610213816101ed565b92915050565b60006020828403121561022f5761022e6101b6565b5b600061023d84828501610204565b91505092915050565b6000819050919050565b61025981610246565b82525050565b60006020820190506102746000830184610250565b92915050565b6000610285826101bb565b9050919050565b6102958161027a565b82525050565b60006020820190506102b0600083018461028c565b92915050565b6102bf81610246565b81146102ca57600080fd5b50565b6000813590506102dc816102b6565b92915050565b600080604083850312156102f9576102f86101b6565b5b6000610307858286016102cd565b925050602061031885828601610204565b9150509250929050565b600082825260208201905092915050565b7f4c6f616e20616c72656164792073656e74000000000000000000000000000000600082015250565b6000610369601183610322565b915061037482610333565b602082019050919050565b600060208201905081810360008301526103988161035c565b905091905056fea26469706673582212203f66706429d2e8b340da19f4ce44614aac06a340182c594b8710569bbb8f2ddd64736f6c63430008130033",
  "immutableReferences": {},
  "source": "// SPDX-License-Identifier: MIT\r\npragma solidity ^0.8.0;\r\n\r\n\r\ncontract LoanContract {\r\n\r\n    address payable public admin;\r\n    mapping(address => uint) public loans;\r\n\r\n    constructor() {\r\n        admin = payable(msg.sender);\r\n    }\r\n\r\n    function sendLoan(uint amount,address client ) public {\r\n        require(loans[client] == 0, \"Loan already sent\");\r\n        loans[client] = amount;\r\n    }\r\n\r\n\r\n}",
  "sourcePath": "D:\\PROJECTS\\loan-sanctioning\\loan-server\\contracts\\loanContract.sol",
  "compiler": {
    "name": "solc",
    "version": "0.8.19+commit.7dd6d404.Emscripten.clang"
  },
  "schemaVersion": "3.4.16",
  "updatedAt": "2024-02-27T14:53:42.746Z",
  "networkType": "ethereum",
  "devdoc": {
    "kind": "dev",
    "methods": {},
    "version": 1
  },
  "userdoc": {
    "kind": "user",
    "methods": {},
    "version": 1
  }
}