{
  "contractName": "Users",
  "abi": [
    {
      "inputs": [],
      "stateMutability": "nonpayable",
      "type": "constructor"
    },
    {
      "inputs": [
        {
          "internalType": "address",
          "name": "",
          "type": "address"
        }
      ],
      "name": "users",
      "outputs": [
        {
          "internalType": "address",
          "name": "userAddress",
          "type": "address"
        },
        {
          "internalType": "uint8",
          "name": "age",
          "type": "uint8"
        },
        {
          "internalType": "uint256",
          "name": "income_annum",
          "type": "uint256"
        },
        {
          "internalType": "uint256",
          "name": "cibil_score",
          "type": "uint256"
        },
        {
          "internalType": "uint256",
          "name": "residential_assets_value",
          "type": "uint256"
        },
        {
          "internalType": "uint256",
          "name": "commercial_assets_value",
          "type": "uint256"
        },
        {
          "internalType": "uint256",
          "name": "luxury_assets_value",
          "type": "uint256"
        },
        {
          "internalType": "uint256",
          "name": "bank_asset_value",
          "type": "uint256"
        }
      ],
      "stateMutability": "view",
      "type": "function",
      "constant": true
    },
    {
      "inputs": [
        {
          "internalType": "address",
          "name": "_userAddress",
          "type": "address"
        }
      ],
      "name": "getUserDetails",
      "outputs": [
        {
          "components": [
            {
              "internalType": "address",
              "name": "userAddress",
              "type": "address"
            },
            {
              "internalType": "uint8",
              "name": "age",
              "type": "uint8"
            },
            {
              "internalType": "uint256",
              "name": "income_annum",
              "type": "uint256"
            },
            {
              "internalType": "uint256",
              "name": "cibil_score",
              "type": "uint256"
            },
            {
              "internalType": "uint256",
              "name": "residential_assets_value",
              "type": "uint256"
            },
            {
              "internalType": "uint256",
              "name": "commercial_assets_value",
              "type": "uint256"
            },
            {
              "internalType": "uint256",
              "name": "luxury_assets_value",
              "type": "uint256"
            },
            {
              "internalType": "uint256",
              "name": "bank_asset_value",
              "type": "uint256"
            }
          ],
          "internalType": "struct Users.FinancialDetails",
          "name": "",
          "type": "tuple"
        }
      ],
      "stateMutability": "view",
      "type": "function",
      "constant": true
    },
    {
      "inputs": [
        {
          "internalType": "address",
          "name": "_userAddress",
          "type": "address"
        }
      ],
      "name": "verifyAge",
      "outputs": [
        {
          "internalType": "bool",
          "name": "",
          "type": "bool"
        }
      ],
      "stateMutability": "view",
      "type": "function",
      "constant": true
    }
  ],
  "bytecode": "0x6080604052738e83163a57e4e7b91f7110e79b948d2dbcecf078600160006101000a81548173ffffffffffffffffffffffffffffffffffffffff021916908373ffffffffffffffffffffffffffffffffffffffff160217905550732ed26987bf37a162eaaa3d4c3ee2d56ccde54e92600260006101000a81548173ffffffffffffffffffffffffffffffffffffffff021916908373ffffffffffffffffffffffffffffffffffffffff16021790555073c9845f7ebc52e5173059939caa662946ddb1029c600360006101000a81548173ffffffffffffffffffffffffffffffffffffffff021916908373ffffffffffffffffffffffffffffffffffffffff16021790555034801561010f57600080fd5b50604051806101000160405280600160009054906101000a900473ffffffffffffffffffffffffffffffffffffffff1673ffffffffffffffffffffffffffffffffffffffff168152602001601960ff168152602001620f424081526020016103208152602001620186a08152602001620186a08152602001620186a08152602001620186a0815250600080600160009054906101000a900473ffffffffffffffffffffffffffffffffffffffff1673ffffffffffffffffffffffffffffffffffffffff1673ffffffffffffffffffffffffffffffffffffffff16815260200190815260200160002060008201518160000160006101000a81548173ffffffffffffffffffffffffffffffffffffffff021916908373ffffffffffffffffffffffffffffffffffffffff16021790555060208201518160000160146101000a81548160ff021916908360ff16021790555060408201518160010155606082015181600201556080820151816003015560a0820151816004015560c0820151816005015560e08201518160060155905050604051806101000160405280600260009054906101000a900473ffffffffffffffffffffffffffffffffffffffff1673ffffffffffffffffffffffffffffffffffffffff168152602001601060ff168152602001620f424081526020016103208152602001620186a08152602001620186a08152602001620186a08152602001620186a0815250600080600260009054906101000a900473ffffffffffffffffffffffffffffffffffffffff1673ffffffffffffffffffffffffffffffffffffffff1673ffffffffffffffffffffffffffffffffffffffff16815260200190815260200160002060008201518160000160006101000a81548173ffffffffffffffffffffffffffffffffffffffff021916908373ffffffffffffffffffffffffffffffffffffffff16021790555060208201518160000160146101000a81548160ff021916908360ff16021790555060408201518160010155606082015181600201556080820151816003015560a0820151816004015560c0820151816005015560e08201518160060155905050604051806101000160405280600360009054906101000a900473ffffffffffffffffffffffffffffffffffffffff1673ffffffffffffffffffffffffffffffffffffffff168152602001601e60ff168152602001620186a08152602001610258815260200162019a50815260200162022ace81526020016201d97c81526020016201e0f3815250600080600360009054906101000a900473ffffffffffffffffffffffffffffffffffffffff1673ffffffffffffffffffffffffffffffffffffffff1673ffffffffffffffffffffffffffffffffffffffff16815260200190815260200160002060008201518160000160006101000a81548173ffffffffffffffffffffffffffffffffffffffff021916908373ffffffffffffffffffffffffffffffffffffffff16021790555060208201518160000160146101000a81548160ff021916908360ff16021790555060408201518160010155606082015181600201556080820151816003015560a0820151816004015560c0820151816005015560e082015181600601559050506105c0806105c96000396000f3fe608060405234801561001057600080fd5b50600436106100415760003560e01c8063a87430ba14610046578063b55a5f141461007d578063cc3d967b146100ad575b600080fd5b610060600480360381019061005b919061037a565b6100dd565b6040516100749897969594939291906103eb565b60405180910390f35b6100976004803603810190610092919061037a565b610152565b6040516100a49190610484565b60405180910390f35b6100c760048036038101906100c2919061037a565b6101b1565b6040516100d4919061056e565b60405180910390f35b60006020528060005260406000206000915090508060000160009054906101000a900473ffffffffffffffffffffffffffffffffffffffff16908060000160149054906101000a900460ff16908060010154908060020154908060030154908060040154908060050154908060060154905088565b600060126000808473ffffffffffffffffffffffffffffffffffffffff1673ffffffffffffffffffffffffffffffffffffffff16815260200190815260200160002060000160149054906101000a900460ff1660ff1610159050919050565b6101b96102b9565b6000808373ffffffffffffffffffffffffffffffffffffffff1673ffffffffffffffffffffffffffffffffffffffff168152602001908152602001600020604051806101000160405290816000820160009054906101000a900473ffffffffffffffffffffffffffffffffffffffff1673ffffffffffffffffffffffffffffffffffffffff1673ffffffffffffffffffffffffffffffffffffffff1681526020016000820160149054906101000a900460ff1660ff1660ff16815260200160018201548152602001600282015481526020016003820154815260200160048201548152602001600582015481526020016006820154815250509050919050565b604051806101000160405280600073ffffffffffffffffffffffffffffffffffffffff168152602001600060ff1681526020016000815260200160008152602001600081526020016000815260200160008152602001600081525090565b600080fd5b600073ffffffffffffffffffffffffffffffffffffffff82169050919050565b60006103478261031c565b9050919050565b6103578161033c565b811461036257600080fd5b50565b6000813590506103748161034e565b92915050565b6000602082840312156103905761038f610317565b5b600061039e84828501610365565b91505092915050565b6103b08161033c565b82525050565b600060ff82169050919050565b6103cc816103b6565b82525050565b6000819050919050565b6103e5816103d2565b82525050565b600061010082019050610401600083018b6103a7565b61040e602083018a6103c3565b61041b60408301896103dc565b61042860608301886103dc565b61043560808301876103dc565b61044260a08301866103dc565b61044f60c08301856103dc565b61045c60e08301846103dc565b9998505050505050505050565b60008115159050919050565b61047e81610469565b82525050565b60006020820190506104996000830184610475565b92915050565b6104a88161033c565b82525050565b6104b7816103b6565b82525050565b6104c6816103d2565b82525050565b610100820160008201516104e3600085018261049f565b5060208201516104f660208501826104ae565b50604082015161050960408501826104bd565b50606082015161051c60608501826104bd565b50608082015161052f60808501826104bd565b5060a082015161054260a08501826104bd565b5060c082015161055560c08501826104bd565b5060e082015161056860e08501826104bd565b50505050565b60006101008201905061058460008301846104cc565b9291505056fea2646970667358221220456b65f234d5bbf70ad082180fde59320f0e134f51f36e37252c3293d7ce3ed164736f6c63430008130033",
  "immutableReferences": {},
  "source": "// SPDX-License-Identifier: MIT\r\npragma solidity ^0.8.0;\r\n\r\ncontract Users {\r\n\r\n    struct FinancialDetails {\r\n        address userAddress;\r\n        uint8 age;\r\n        uint income_annum;\r\n        uint cibil_score;\r\n        uint residential_assets_value;\r\n        uint commercial_assets_value;\r\n        uint luxury_assets_value;\r\n        uint bank_asset_value;\r\n    }\r\n\r\n    mapping(address => FinancialDetails) public users;\r\n\r\n    address userAddress1 = 0x8e83163A57E4E7b91f7110e79b948D2dbCEcF078;\r\n    address userAddress2 = 0x2eD26987bf37A162EaaA3D4c3Ee2D56ccdE54e92;\r\n    address userAddress3 = 0xC9845f7EBC52e5173059939caa662946ddb1029C;\r\n\r\n    constructor() {\r\n        users[userAddress1] = FinancialDetails(userAddress1, 25, 1000000, 800, 100000, 100000, 100000, 100000);\r\n        users[userAddress2] = FinancialDetails(userAddress2, 16, 1000000, 800, 100000, 100000, 100000, 100000);\r\n        users[userAddress3] = FinancialDetails(userAddress3, 30, 100000, 600, 105040, 142030, 121212, 123123);\r\n    }\r\n\r\n    function getUserDetails(address _userAddress) public view returns(FinancialDetails memory) {\r\n        return users[_userAddress];\r\n    }\r\n\r\n    function verifyAge(address _userAddress) public view returns(bool) {\r\n        return users[_userAddress].age >= 18;\r\n    }\r\n}\r\n",
  "sourcePath": "D:\\PROJECTS\\loan-sanctioning\\loan-server\\contracts\\users.sol",
  "compiler": {
    "name": "solc",
    "version": "0.8.19+commit.7dd6d404.Emscripten.clang"
  },
  "schemaVersion": "3.4.16",
  "updatedAt": "2024-02-28T04:27:36.592Z",
  "networkType": "ethereum",
  "devdoc": {
    "kind": "dev",
    "methods": {},
    "version": 1
  },
  "userdoc": {
    "kind": "user",
    "methods": {},
    "version": 1
  }
}